:100000000C9434000C943E000C943E000C943E0082
:100010000C943E000C943E000C943E000C943E0068
:100020000C943E000C943E000C943E000C943E0058
:100030000C943E000C943E000C943E000C943E0048
:100040000C943E000C943E000C943E000C943E0038
:100050000C943E000C943E000C943E000C943E0028
:100060000C943E000C943E0011241FBECFEFD8E04C
:10007000DEBFCDBF0E9440000C9478000C940000BD
:1000800084B1806284B985B18F7D85B92FEF33ED5E
:1000900080E3215030408040E1F700C0000095B17E
:1000A00080E2982795B99FEF23ED30E391502040EF
:1000B0003040E1F700C0000095B19F7D95B99FEFFA
:1000C00023ED30E3915020403040E1F700C00000C4
:1000D00095B1892785B98FEF9BE722E98150904040
:1000E0002040E1F700C0000085B18F7D85B9CECFFB
:0400F000F894FFCFB2
:00000001FF
